:1000000046C060C05FC0B6C05DC05CC05BC05AC0C7
:1000100059C058C057C056C055C054C053C052C034
:100020009EC150C04FC04EC04DC04CC04BC04AC016
:1000300049C048C000000009000302000004050890
:100040000000000000000000000000010204081091
:100050002040800102040810200102040810204002
:1000600080400404040404040404020202020202A4
:10007000030303030303020203000000002500281A
:10008000002B0000000000240027002A000011249B
:100090001FBECFEFD4E0DEBFCDBF11E0A0E0B1E0E6
:1000A000E4E6F6E002C005900D92AE30B107D9F754
:1000B00021E0AEE0B1E001C01D92AA31B207E1F744
:1000C000AED2CEC29DCFEDE6F0E0883060F08E304B
:1000D00090F1843130F0863170F1F0E0E0E086316B
:1000E00011F4ECE6F0E09081883040F541E050E01A
:1000F00060E070E0082E04C0440F551F661F771F94
:100100000A94D2F7492B40832BB394E0883050F007
:1001100091E08E3038F092E0843120F091E0863129
:1001200008F090E0822F892B8BBB80916800982B80
:10013000909368000895EBE6F0E0D5CF482F485043
:10014000550B8E3028F0863180F4482F4E50550BD9
:100150009A0141E050E060E070E004C0440F551F98
:10016000661F771F2A95D2F7CDCF40E4863151F232
:1001700040E0C8CF1F920F920FB60F9211248F93B9
:1001800083B185FB882780F980930E018F910F90B2
:100190000FBE0F901F901895CF93DF93D0E0C0E073
:1001A00060E0CE014FD22196C11582E0D807C1F799
:1001B000DF91CF910895CF93DF93C6E0D1E061E066
:1001C0008881C3D160E08881FCD162E370E080E087
:1001D00090E034D161E08881F4D162E370E080E0A6
:1001E00090E02CD160E08881ECD160E08881DF91E3
:1001F000CF91ABC10F931F93CF93DF93EC0161E0DD
:1002000080FF60E088E0DDD161E0C1FF60E089E06F
:10021000D8D161E0C2FF60E08AE0D3D161E0C3FFE2
:1002200060E08FE0CED161E0C4FF60E080E1C9D141
:1002300061E0C5FF60E081E1C4D190E080E0FAD1E7
:100240008C171D0621F06C2F90E080E0FBD1B3DF0E
:1002500010E000E0C017D107ACF061E0809102012E
:10026000B0D16EE170E080E090E0E8D060E0809195
:100270000201A7D16AEF70E080E090E0DFD00F5F6D
:100280001F4FE8CF68EC70E080E090E0DF91CF9105
:100290001F910F91D3C01AB860E08091040155D12D
:1002A00060E08091060151D161E088E04ED161E0CB
:1002B00089E04BD161E08AE048D161E08FE045D12F
:1002C00061E080E142D161E081E13FD161E0809174
:1002D00002013BD190E080E0ADD190E08930910502
:1002E0001CF05ADF90E080E085DF80910401EBCEC6
:1002F000CF9380910E01882331F110920E01C9B184
:1003000020910F0130911001809100019091010125
:100310002817390749F48FEC8C0F8830B0F42C2F54
:100320002153330BC90166DF80910F0190911001B9
:10033000FC01E85FFE4F20812C130CC001969093C6
:10034000100180930F01CF91089510921001109227
:100350000F01EACF1092100110920F01F4CF1F92FB
:100360000F920FB60F9211242F933F938F939F9369
:10037000AF93BF938091160190911701A09118013E
:10038000B09119013091150123E0230F2D3768F149
:1003900026E8230F0296A11DB11D2093150180931D
:1003A000160190931701A0931801B0931901809141
:1003B000110190911201A0911301B09114010196C5
:1003C000A11DB11D8093110190931201A0931301FF
:1003D000B0931401BF91AF919F918F913F912F9155
:1003E0000F900FBE0F901F9018950196A11DB11D83
:1003F000D4CF3FB7F8948091110190911201A09150
:100400001301B091140126B5A89B05C02F3F19F028
:100410000196A11DB11D3FBFBA2FA92F982F882784
:10042000BC01CD01620F711D811D911D42E0660F5F
:10043000771F881F991F4A95D1F708958F929F9231
:10044000AF92BF92CF92DF92EF92FF926B017C014D
:10045000D0DF4B015C01C114D104E104F104D9F0F7
:10046000E8D0C7DF681979098A099B09683E73409B
:100470008105910580F321E0C21AD108E108F10855
:1004800088EE880E83E0981EA11CB11CC114D10413
:10049000E104F10431F7FF90EF90DF90CF90BF902F
:1004A000AF909F908F900895789484B5836084BDB9
:1004B00085B5836085BDEEE6F0E080818160808354
:1004C000E1E8F0E082E08083808181608083E0E881
:1004D000F0E0808181608083E1EBF0E080818460E6
:1004E0008083E0EBF0E080818160808387E8809307
:1004F0007A001092C1000895843081F028F482308F
:10050000E9F08330F9F00895883071F0893091F086
:100510008530B9F4809180008F7D03C08091800088
:100520008F778093800008958091B0008F778093BB
:10053000B00008958091B0008F7DF9CF84B58F779A
:1005400084BD089584B58F7DFBCFCF93DF9390E07A
:10055000FC01E55BFF4F24918E599F4FFC01849174
:100560008823C9F090E0880F991FFC01ED57FF4FD9
:10057000A591B491FC01E758FF4FC591D491611149
:100580000DC09FB7F8948C91209582238C9388811D
:10059000282328839FBFDF91CF910895623051F4C3
:1005A0009FB7F8943C91822F809583238C93E881A8
:1005B0002E2BEFCF8FB7F894EC912E2B2C938FBF6F
:1005C000EACF1F93CF93DF93282F30E0F901EC5C43
:1005D000FF4F8491F901E55BFF4FD491F901EE598A
:1005E000FF4FC491CC23A1F0162F811185DFEC2F92
:1005F000F0E0EE0FFF1FE758FF4FA591B4918FB7C2
:10060000F894EC91111108C0D095DE23DC938FBFD4
:10061000DF91CF911F910895DE2BF8CF089544DF2D
:10062000FDDF39DEC0E0D0E063DE2097E9F3E8DCEF
:10063000FBCF0895F999FECF92BD81BDF89A992715
:1006400080B50895262FF999FECF1FBA92BD81BDBE
:1006500020BD0FB6F894FA9AF99A0FBE0196089544
:04066000F894FFCF3C
:0E06640006000E000D000B004D4F524E52408E
:00000001FF
