:100000000C945C000C9479000C9479000C9414020C
:100010000C9479000C9479000C9479000C9479007C
:100020000C9479000C9479000C9479000C9479006C
:100030000C9479000C9479000C9479000C9479005C
:100040000C94CA010C9479000C9479000C947900FA
:100050000C9479000C9479000C9479000C9479003C
:100060000C9479000C947900000000002400270013
:100070002A0000000000250028002B0004040404CE
:100080000404040402020202020203030303030342
:10009000010204081020408001020408102001021F
:1000A00004081020000000080002010000030407FB
:1000B000000000000000000011241FBECFEFD8E0B8
:1000C000DEBFCDBF11E0A0E0B1E0E8E0F6E002C0A5
:1000D00005900D92A630B107D9F721E0A6E0B1E076
:1000E00001C01D92A231B207E1F70E9426020C94D2
:1000F00002030C94000090E0FC01EC55FF4F2491AA
:10010000FC01E057FF4F3491FC01E458FF4FE491AC
:10011000EE23C9F0222339F0233001F1A8F4213075
:1001200019F1223029F1F0E0EE0FFF1FEE58FF4FDA
:10013000A591B4918FB7F894EC91611126C03095D8
:100140003E233C938FBF08952730A9F02830C9F093
:10015000243049F7809180008F7D03C0809180001A
:100160008F7780938000DFCF84B58F7784BDDBCF1E
:1001700084B58F7DFBCF8091B0008F778093B000E6
:10018000D2CF8091B0008F7DF9CF3E2BDACFCF93C5
:10019000DF9390E0FC01E057FF4F249184589F4F7C
:1001A000FC0184918823D1F090E0880F991FFC0115
:1001B000E859FF4FA591B491FC01EE58FF4FC5914E
:1001C000D49161110EC09FB7F8948C91E22FE09505
:1001D0008E238C932881E223E8839FBFDF91CF9108
:1001E00008958FB7F894EC91E22BEC938FBFF6CF84
:1001F0003FB7F89480910B0190910C01A0910D01F3
:10020000B0910E0126B5A89B05C02F3F19F00196AD
:10021000A11DB11D3FBFBA2FA92F982F8827BC0160
:10022000CD01620F711D811D911D42E0660F771F88
:10023000881F991F4A95D1F708958F929F92AF9288
:10024000BF92CF92DF92EF92FF924B015C010E942E
:10025000F8006B017C010E94F8006C197D098E0981
:100260009F09683E734081059105A8F321E0821A39
:100270009108A108B10888EEC80E83E0D81EE11CE1
:10028000F11C81149104A104B10429F7FF90EF90AF
:10029000DF90CF90BF90AF909F908F9008950F9375
:1002A0001F93CF93DF93EC0161E080FF60E088E073
:1002B0000E947B0061E0C1FF60E089E00E947B005A
:1002C00061E0C2FF60E08AE00E947B0061E0C3FF62
:1002D00060E08FE00E947B0061E0C4FF60E080E1AD
:1002E0000E947B0061E0C5FF60E081E10E947B002D
:1002F00090E080E00E94EC028C171D0629F06C2F24
:1003000090E080E00E94F40261E08BE00E94C70070
:1003100060E08BE00E947B0062E370E080E090E0B0
:100320000E941D0161E08BE00E947B0062E370E0AF
:1003300080E090E00E941D0160E08BE00E947B0065
:1003400060E08BE00E94C70010E000E0C017D1071A
:10035000BCF061E08EE00E947B006EE170E080E026
:1003600090E00E941D0160E08EE00E947B006AEF39
:1003700070E080E090E00E941D010F5F1F4FE6CF0C
:1003800068EC70E080E090E0DF91CF911F910F91D9
:100390000C941D011F920F920FB60F9211242F93F0
:1003A0003F938F939F93AF93BF9380910701909159
:1003B0000801A0910901B0910A013091060123E0E2
:1003C000230F2D3758F50196A11DB11D209306016D
:1003D0008093070190930801A0930901B0930A014B
:1003E00080910B0190910C01A0910D01B0910E0133
:1003F0000196A11DB11D80930B0190930C01A09358
:100400000D01B0930E01BF91AF919F918F913F91DC
:100410002F910F900FBE0F901F90189526E8230F75
:100420000296A11DB11DD2CF1F920F920FB60F924F
:1004300011248F9383B185FB882780F98093110164
:100440008F910F900FBE0F901F901895789484B5E0
:10045000826084BD84B5816084BD85B5826085BDC0
:1004600085B5816085BD80916E00816080936E004E
:100470001092810080918100826080938100809140
:1004800081008160809381008091800081608093F1
:1004900080008091B10084608093B1008091B000B1
:1004A00081608093B00080917A00846080937A00AC
:1004B00080917A00826080937A0080917A008160D6
:1004C00080937A0080917A00806880937A001092FD
:1004D000C1001AB860E08DE00E94C70060E08BE0C8
:1004E0000E94C70061E088E00E94C70061E089E0E7
:1004F0000E94C70061E08AE00E94C70061E08FE0CF
:100500000E94C70061E080E10E94C70061E081E1D4
:100510000E94C70061E08EE00E94C70090E080E08A
:100520000E94EC0290E0893091056CF0D0E0C0E0D0
:1005300060E0CE010E94F4022196C11584E0D80744
:10054000B9F790E080E00E944F0180916B008062DB
:1005500080936B00D89A80916800816080936800D6
:10056000C0E0D0E001E010E080911101882309F1A2
:1005700029B11092110180910F0190911001FC019D
:10058000E050FF4F3081231320C00196909310015B
:1005900080930F01069769F4809111018823E1F39C
:1005A00089B19FEC980F943048F48153990B0E94C5
:1005B0004F012097C9F20E940000D6CF8D3439F444
:1005C0001093100100930F01F4CF2D34C9F3109252
:1005D000100110920F01EDCFF999FECF92BD81BDB0
:1005E000F89A992780B50895262FF999FECF1FBA5A
:1005F00092BD81BD20BD0FB6F894FA9AF99A0FBE4C
:0806000001960895F894FFCF64
:060608004D4F524E52401E
:00000001FF
