:1000000041C05BC05AC0E2C158C057C056C055C0BD
:1000100054C053C052C051C050C04FC04EC04DC05C
:100020008BC14BC04AC049C048C047C046C045C04C
:1000300044C043C000000000240027002A00000044
:100040000000250028002B00040404040404040418
:100050000202020202020303030303030102040873
:100060001020408001020408102001020408102022
:100070000000000800020100000304070000000067
:100080000000000011241FBECFEFD2E0DEBFCDBFC5
:1000900011E0A0E0B1E0E0EDF6E002C005900D92C5
:1000A000A830B107D9F721E0A8E0B1E001C01D9266
:1000B000A332B207E1F79CD109C3A2CF90E0FC01C3
:1000C000E059FF4F2491FC01E45AFF4F3491FC01A9
:1000D000E85BFF4FE491EE23C9F0222339F023308F
:1000E00001F1A8F4213019F1223029F1F0E0EE0FEE
:1000F000FF1FE25CFF4FA591B4918FB7F894EC918C
:10010000611126C030953E233C938FBF0895273060
:10011000A9F02830C9F0243049F7809180008F7D04
:1001200003C0809180008F7780938000DFCF84B5FB
:100130008F7784BDDBCF84B58F7DFBCF8091B000FE
:100140008F778093B000D2CF8091B0008F7DF9CFB0
:100150003E2BDACFCF93DF9390E0FC01E45AFF4FC0
:100160002491885B9F4FFC0184918823D1F090E01B
:10017000880F991FFC01EC5CFF4FA591B491FC0125
:10018000E25CFF4FC591D49161110EC09FB7F89406
:100190008C91E22FE0958E238C932881E223E883D3
:1001A0009FBFDF91CF9108958FB7F894EC91E22B28
:1001B000EC938FBFF6CF3FB7F89480910D019091EB
:1001C0000E01A0910F01B091100126B5A89B05C0AA
:1001D0002F3F19F00196A11DB11D3FBFBA2FA92FC6
:1001E000982F8827BC01CD01620F711D811D911DC3
:1001F00042E0660F771F881F991F4A95D1F708952F
:100200008F929F92AF92BF92CF92DF92EF92FF9226
:100210004B015C01D0DF6B017C01CDDF6C197D09E6
:100220008E099F09683E734081059105B0F321E076
:10023000821A9108A108B10888EEC80E83E0D81E82
:10024000E11CF11C81149104A104B10431F7FF9069
:10025000EF90DF90CF90BF90AF909F908F900895D8
:100260002FB7F8946091090170910A0180910B01F8
:1002700090910C012FBF08951F93CF93DF93EC0152
:10028000162F662371F060E08BE018DF64E670E003
:1002900080E090E0B5DF61E08BE05CDF60E08BE068
:1002A0000DDF61E0C0FF60E088E008DF61E0C1FFD2
:1002B00060E089E003DF61E0C2FF60E08AE0FEDE2B
:1002C00061E0C3FF60E08FE0F9DE61E0C4FF60E061
:1002D00080E1F4DE61E0C5FF60E081E1EFDE809166
:1002E0001A0190911B018C179D0769F0209769F006
:1002F0006C2F90E080E0DCD1D0931B01C0931A01F9
:100300001092220102C02097D9F7112341F068EC26
:1003100070E080E090E074DF60E08BE01BDF64EF72
:1003200071E080E090E06CDFD0932001C0931F016A
:10033000DF91CF911F9108951F920F920FB60F92E8
:1003400011242F933F938F939F93AF93BF938091EB
:10035000090190910A01A0910B01B0910C0130911B
:10036000080123E0230F2D3758F50196A11DB11D7B
:10037000209308018093090190930A01A0930B0137
:10038000B0930C0180910D0190910E01A0910F018D
:10039000B09110010196A11DB11D80930D019093A4
:1003A0000E01A0930F01B0931001BF91AF919F91E7
:1003B0008F913F912F910F900FBE0F901F90189526
:1003C00026E8230F0296A11DB11DD2CF1F920F92D6
:1003D0000FB60F9211248F9383B185FB882780F984
:1003E00080931E018F910F900FBE0F901F90189554
:1003F000789484B5826084BD84B5816084BD85B500
:10040000826085BD85B5816085BD80916E0081600B
:1004100080936E00109281008091810082608093B1
:1004200081008091810081608093810080918000B3
:100430008160809380008091B10084608093B100DE
:100440008091B00081608093B00080917A008460D8
:1004500080937A0080917A00826080937A00809104
:100460007A00816080937A0080917A00806880931E
:100470007A001092C1001AB860E08BE01FDE61E0E4
:100480008BE068DE60E08DE065DE61E088E062DEE2
:1004900061E089E05FDE61E08AE05CDE61E08FE0E0
:1004A00059DE61E080E156DE61E081E153DE61E02A
:1004B0008EE050DE60E08CE04DDE60E08EE0FEDD40
:1004C00090E080E0EDD090E090931B0180931A01C2
:1004D000409724F010921B0110921A0180911A018A
:1004E00090911B01009719F421E02093220160E014
:1004F000C3DE60E08BE02EDE64EF71E080E090E030
:100500007FDE80916B00806280936B00D89A80912F
:10051000680081608093680080E0E82E80E0F82E1B
:10052000C1E0809122018823D1F110922101109223
:10053000200110921F0180911E01882389F089B14A
:1005400010921E0120911C0130911D0128303105AF
:10055000C9F49FEF980F9F3080F461E090E08CDE4B
:100560001B9906C060E080911A0190911B0184DE06
:10057000E114F104B1F244DDD4CF10921D011092C8
:100580001C01EECFF901E050FF4F90818913F5CFA8
:100590002F5F3F4F30931D0120931C01E1CF8091CD
:1005A00019011C9930C0C093210181110BC058DE84
:1005B00060931501709316018093170190931801B1
:1005C000C09319014DDE0091150110911601209183
:1005D000170130911801601B710B820B930B613D69
:1005E00077408105910550F0C093220161E090E0D1
:1005F00080E042DE109221011092190160912101E8
:100600008EE05CDDB5CF882321F01092210110929D
:10061000190100911F01109120011016110674F7A5
:100620008090110190901201A0901301B0901401DC
:1006300081149104A104B10441F4C093210110DE9E
:100640006E5C7F4F8F4F9F4F19C00ADE861697064C
:10065000A806B90698F680912101882371F31092BB
:100660002101015011091093200100931F01012B5A
:1006700071F0F6DD66507F4F8F4F9F4F60931101F1
:10068000709312018093130190931401B7CF1092CD
:100690001101109212011092130110921401AECFA9
:1006A000F999FECF12BC81BDF89A992780B50895BB
:1006B000262FF999FECF1FBA12BC81BD20BD0FB6FF
:1006C000F894FA9AF99A0FBE01960895F894FFCF1C
:0806D000524E524F4D36342307
:00000001FF
